:020000040800F2
:100000007007002091010008650B000895050008A5
:10001000610B0008AB0400085B0D00080000000045
:10002000000000000000000000000000A301000824
:10003000A501000800000000A7010008990C0008B5
:10004000AB010008AB010008AB010008AB010008E0
:10005000AB010008AB010008AB010008AB010008D0
:10006000AB010008AB010008AB010008AB010008C0
:10007000AB010008AB010008AB010008AB010008B0
:10008000AB010008AB010008AB010008AB010008A0
:10009000AB010008AB010008AB010008AB01000890
:1000A000AB010008AB010008AB010008AB01000880
:1000B000AB010008AB010008AB010008AB01000870
:1000C000AB010008AB010008AB010008AB01000860
:1000D000AB010008AB010008AB010008AB01000850
:1000E000AB010008AB010008AB01000800F002F80A
:1000F00000F03FF80AA090E8000C82448344AAF183
:100100000107DA4501D100F034F8AFF2090EBAE880
:100110000F0013F0010F18BFFB1A43F0010318473B
:10012000E411000004120000103A24BF78C878C11E
:10013000FAD8520724BF30C830C144BF04680C60ED
:10014000704700000023002400250026103A28BF35
:1001500078C1FBD8520728BF30C148BF0B60704739
:10016000642900F08380002070471FB51FBD10B5C3
:1001700010BD00F060F91146FFF7F7FF00F0F0FD49
:1001800000F07EF903B4FFF7F2FF03BC00F086F93C
:100190000948804709480047FEE7FEE7FEE7FEE71B
:1001A000FEE7FEE7FEE7FEE7FEE7FEE70448054957
:1001B000054A064B70470000590D0008ED00000885
:1001C00070010020700700207003002070030020E1
:1001D0000FB41CB50C0007AA009001D02044401EAB
:1001E000074B7B4469460190069800F004F9002C07
:1001F00003D06946002000F011F91CBC5DF814FB27
:10020000410200002DE9F0410E4604460020206224
:100210002046E168884730B3252805D0D4E901217C
:100220009047206A401CF2E7E16820460027884793
:10023000050018D0A5F14100192802D820354FF447
:1002400000673246294620462760FFF789FF40B104
:10025000012804D0F61D26F007060836D8E7361D1B
:10026000D6E72846DAE7206ABDE8F0812DE9F041BB
:100270000646002410687529314616A510D0AFF344
:100280000080002802DA404213A507E031688A079F
:1002900001D512A502E0490704D511A5012401E00A
:1002A000AFF3008000210A2206F1240709E0B0FB29
:1002B000F2FCB0FBF2F302FB1C003030785418461D
:1002C000491C0028F3D123462A463046BDE8F041B8
:1002D00000F032B8000000002D0000002B000000EC
:1002E000200000004FF0000200B5134694469646E9
:1002F000203922BFA0E80C50A0E80C50B1F1200139
:10030000BFF4F7AF090728BFA0E80C5048BF0CC0E6
:100310005DF804EB890028BF40F8042B08BF704744
:1003200048BF20F8022B11F0804F18BF00F8012BB6
:1003300070477047704770472DE9F0470D46994662
:100340009246044600F124080168880604D5E06955
:1003500021F01001216000E00120A84201DD471BCF
:1003600000E00027A1697A1902EB0900081AA061D0
:100370002078C00602D42046AFF30080002608E0B3
:10038000D4E901211AF806009047206A401C761C27
:1003900020624E45F4DB2078C0060AD52046AFF334
:1003A000008006E0D4E9012130209047206A401CFB
:1003B0002062381EA7F10107F4DC07E0D4E901212F
:1003C00018F805009047206A401C2062281EA5F1FD
:1003D0000105F3DC2046AFF300802078000602D54B
:1003E0000220BDE8F0870120FBE7000001694A1CFC
:1003F00002610878704700B58FB0CDE90131002166
:10040000059105497944CDE9031011466846FFF787
:10041000F9FE0FB000BD0000E5FFFFFF0A6802F81B
:10042000010B0A607047D1E900239A4202D2531CA3
:100430000B6010707047754600F02CF8AE46050052
:100440006946534620F00700854618B020B5FFF7EF
:10045000ADFEBDE820404FF000064FF000074FF022
:1004600000084FF0000B21F00701AC46ACE8C009D2
:10047000ACE8C009ACE8C009ACE8C0098D467047DB
:1004800010B50446AFF300802046BDE81040FFF7EA
:1004900079BE000000487047100100200149182073
:1004A000ABBEFEE726000200704700BFFEE700007B
:1004B00070B505460E4614464FF48061324800F090
:1004C0001BF9314800F084F900BF2F4800F0C3F950
:1004D0000028FAD05E212C4800F0C2F900BF2A485B
:1004E00000F0AFF90028FAD0274800F00BF92648B1
:1004F00000F0ACF958B12946234800F0B1F900BF2B
:1005000000BF21484069C0F380200028F8D01E4871
:1005100000F05EF900BF1C4800F09DF90028FAD0F9
:100520005F21194800F09CF900BF174800F089F9D5
:100530000028FAD0144800F0E5F822E0032C03D19B
:100540000021124800F0D8F8022C08D100BF0E4854
:10055000006840F400700C49086000BF00BF0BE069
:1005600000BF09490969C9B2094A1078421C084B01
:100570001A703154601EC4B2034800F067F90028B5
:10058000EED0002CDADC70BD005800400054004072
:100590000800002000BFFEE708B50549C96901430E
:1005A000034AD1611146C9690140009100BF08BDED
:1005B0000010024008B5054989690143034A916169
:1005C000114689690140009100BF08BD001002403A
:1005D0002DE9F04102460B461868C0F30F2595FA45
:1005E000A5F0B0FA80F480E00120A0402840002867
:1005F0007AD0082C04D240F2011000FA04F106E08F
:10060000A4F108004FF00116864046F0806158685A
:1006100008280ED11869D66826EA11260F0A97FA1B
:10062000A7F7B7FA87F700FA07F73E43D66000BF8F
:1006300000BF586802EB116691FAA1FCBCFA8CFC71
:100640004FEA8C084FF00F0C0CFA08FC376827EAC9
:100650000C0791FAA1FCBCFA8CFC4FEA8C0C00FA56
:100660000CFC47EA0C07376000BF5868012802D02D
:100670005868092838D1986802EB116691FAA1FCF4
:10068000BCFA8CFC4FEA8C084FF0030C0CFA08FC07
:10069000376827EA0C0791FAA1FCBCFA8CFC4FEAF8
:1006A0008C0C00FA0CFC47EA0C07376000BFD868D6
:1006B00002EB116691FAA1FCBCFA8CFC4FEA8C08A3
:1006C0004FF0040C0CFA08FC376827EA0C0791FA83
:1006D000A1FCBCFA8CFC4FEA8C0C00FA0CFC47EA3B
:1006E0000C07376000BF00BF641C25FA04F0002827
:1006F0007FF47AAFBDE8F081026822F480620A4399
:100700000260704708B54169009100BF816900919E
:1007100000BF08BDF0B5002400252B4EB1FBF6F458
:10072000466826F03F0626434660284EB24201D86E
:10073000661C07E04FF4967666434FF47A77B6FB73
:10074000F7F6761C076A27F03F073E4306621F4E06
:10075000B24224D96BB902EB4206B1FBF6F6C6F3FE
:100760000B060EB9012615E002EB4206B1FBF6F6C8
:1007700010E002EBC20606EB0216B1FBF6F6C6F37A
:100780000B060EB9012605E002EBC20606EB0216C7
:10079000B1FBF6F646F4004646EA03050CE05600C7
:1007A000B1FBF6F6C6F30B06042E01D2042602E0D6
:1007B0005600B1FBF6F63546C6694CF6FF77BE43E8
:1007C0002E43C661F0BD000040420F00A08601002C
:1007D000016841F48071016070477FB504460D46A1
:1007E00000BF206820F00100206000BF684600F0D4
:1007F0004BF8D5E9012320460299FFF78BFF696981
:10080000E868A26848F2FF339A4340EA01031A43BA
:10081000A26000BF2868216821F01A01014321600D
:1008200000BF00BF206840F00100206000BF2869C1
:10083000216821F480610143216000BF002004B0E1
:1008400070BD01464869C0F34000704701464869E1
:10085000C0F3800070470146486900F0010070470E
:10086000026922F0FF020A43026170474FF47A7175
:10087000B0FBF1F2521E4FF0E0235A6100229A6160
:1008800005221A6100BF704710B5044600F0A0F9B8
:100890002060206800F068F96060606800F074F91A
:1008A000A060606800F082F9E06010BD0149086056
:1008B000704700000C0000202DE9FF4104460D4662
:1008C00001270026204600F041F8002833D1E968CE
:1008D0006868084329690843E16841F20C62914362
:1008E0000843E060A868216921F440510143216177
:1008F00000BF6869616921F440710143616100BF13
:100900006846FFF7C1FF0E48844201D1039E08E00C
:100910000C48844201D1029E03E00B48844200D17E
:10092000029E46B1286830B10027314620462A6829
:1009300000F011F800BF384604B0BDE8F0810000B7
:100940000038014000440040004800400146C868AB
:10095000C0F34030704770B501EBC10303EB0113E6
:100960009400B3FBF4F301EBC10404EB0114950014
:10097000B4FBF5F46425B4FBF5F404EBC40505EB16
:100980000414A3EB8403322404EB03136424B3FBA9
:10099000F4F303F0F00301EBC10404EB0114950040
:1009A000B4FBF5F46425B4FBF5F403EB041401EB9C
:1009B000C10303EB01139500B3FBF5F301EBC10594
:1009C00005EB01159600B5FBF6F56426B5FBF6F5CB
:1009D00005EBC50606EB0515A3EB8503322505EBF4
:1009E00003136425B3FBF5F303F00F0323449BB219
:1009F000836070BD10B51020FFF7DCFD2020FFF7ED
:100A0000D9FD0420FFF7D6FD0820FFF7D3FD10BD68
:100A100000B58BB0182105A8FFF764FC14216846C7
:100A2000FFF760FC0820FFF7C5FD20480090092073
:100A30000190032002900420039069461C48FFF7B0
:100A4000C7FD4FF48000FFF7A7FD00BF1948C0683D
:100A500020F001001749C86000BF00BF08460068C9
:100A600020F04000086000BF00BF0846006820F08A
:100A70008000086000BF002005900F48069000200D
:100A8000079008900815099000010A9005A90948E7
:100A9000FFF7A3FE00200749C96821F0FE010143CA
:100AA000044AD16000BF0BB000BD00000C000C0474
:100AB000000C014000580040A086010000B58DB038
:100AC0001C2106A8FFF70EFC142101A8FFF70AFC61
:100AD0004FF40030FFF760FD0420FFF76BFD40F29C
:100AE000044001900920029003200390002004900C
:100AF00001A91948FFF76CFD40F608000190042099
:100B0000029001A91448FFF763FD4FF4E13006900D
:100B100000200790089009900C200A9000200B906C
:100B20000C9006A90D48FFF7C7FE00BF0B480069EF
:100B300020F49040094908610846406920F02A00E5
:100B4000486100BF00BF0846C06840F40050C8605C
:100B500000BF0DB000BD000000080140004400408F
:100B600000BFFEE700BFFEE7014600BF0448406843
:100B700000F0F0000009034A125C21FA02F070470D
:100B8000001002405C120008014600BF05484068A2
:100B900000F4E060044A02EB1020027821FA02F02F
:100BA00070470000001002406C120008014600BFB0
:100BB0000548406800F46050044A02EBD0200278F7
:100BC00021FA02F070470000001002406C12000889
:100BD00010B5002400BF0B48406800F00C0020B1A5
:100BE000042804D0082808D103E0074C07E0064C8D
:100BF00005E000F00BF8044601E0034C00BF00BF25
:100C0000204610BD0010024000127A000021002290
:100C100000BF1148406800F4803002461AB1B2F5B6
:100C2000803F0CD101E00D490BE000BF0A4840684D
:100C3000C0F34040401C0A4BB3FBF0F101E0074910
:100C400000BF00BF00BF0448406800F470100223DA
:100C500003EB9040484370470010024000093D00FC
:100C600000127A000146002010E00A5C02B97047C9
:100C700000BF00BF074A1268C2F3C012002AF8D0B2
:100C80000A5C044B5A6000BF421CD0B2FF28ECDB68
:100C900000BFECE70044004002480088401C0149C6
:100CA000088070470600002010B500202749096819
:100CB00021F007010143254A116000BF00BF00BFBA
:100CC0002248006800F007000028F8D100BF204843
:100CD000006840F480301E49086000BF00BF00BFBC
:100CE0001B480068C0F340400028F8D00020184995
:100CF000496821F0F0010143154A516000BF00BF6F
:100D00001146496821F4E0610143516000BF00BF12
:100D10001146496821F460510143516000BF012030
:100D20001146496821F003010143516000BF00BF33
:100D300000BF0748406800F00C000428F8D10548BF
:100D4000FFF794FD0348FFF7B1FD10BD00200240FE
:100D50000010024000127A00704700BFFEE700005A
:100D600008B50120FFF726FC4FF08050FFF714FC78
:100D700003200246A54B19684FF6FF031940A44B08
:100D80000B4343EA0221A14B196000BF011F1B68FE
:100D9000C3F302200F2400250346C3F1070CBCF166
:100DA000040F02D94FF0040C01E0C3F1070C6746B1
:100DB00003F1040CBCF1070F02D24FF0000C01E06C
:100DC000A3F1030C66464FF0010C0CFA07FCACF1E2
:100DD000010C0CEA040C0CFA06FC4FF0010808FAAE
:100DE00006F8A8F1010808EA05084CEA080200BF65
:100DF000002904DB1007030E8648435407E0100760
:100E0000040E82480C3001F00F031B1FC45400BFB6
:100E100000BF8148406820F0E06040F080607E497B
:100E2000486000BFFFF740FFFFF7E4FDFFF7F0FD6C
:100E3000FFF744FEE8E079480088B0F57A7FF9D101
:100E4000052277490C20FFF733FB0024D6E07448D5
:100E5000005D00F00700082855D2DFE800F0040E1E
:100E600018222C36404A631C6EA2FF217748FFF7F8
:100E7000AFF97648FFF7F6FE45E0631C744AFF21A0
:100E80007248FFF7A5F97148FFF7ECFE3BE0631CE1
:100E900070A2FF216D48FFF79BF96C48FFF7E2FE57
:100EA00031E0631C79A2FF216848FFF791F9674898
:100EB000FFF7D8FE27E0631C82A2FF216348FFF7FB
:100EC00087F96248FFF7CEFE1DE0631C89A2FF216F
:100ED0005E48FFF77DF95D48FFF7C4FE13E0631C31
:100EE00092A2FF215948FFF773F95848FFF7BAFE5D
:100EF00009E0631C974AFF215448FFF769F95348FA
:100F0000FFF7B0FE00BF00BF4548005DC0F3021010
:100F100020B106280CD007281ED113E0631C8EA236
:100F2000FF214A48FFF754F94848FFF79BFE22E0AB
:100F3000631C90A2FF214548FFF74AF94348FFF799
:100F400091FE18E0631C90A2FF214048FFF740F992
:100F50003E48FFF787FE0EE03148005DC0F3021007
:100F6000631C90A2FF2100903848FFF731F9374801
:100F7000FFF778FE00BF00BF294800790121A1409A
:100F8000084048B1631C8DA2FF213048FFF720F9CB
:100F90002E48FFF767FE0EE0214800790121A140AD
:100FA000084040B9631C8DA2FF212848FFF710F9C3
:100FB0002648FFF757FE0120A0401949097900EAA9
:100FC000211048B1631C8DA2FF212048FFF700F9D2
:100FD0001E48FFF747FE0FE00120A04010490979A5
:100FE00000EA211040B9631C8CA2FF211748FFF7CB
:100FF000EFF81648FFF736FE601CC4B2042C7FF4ED
:1010000026AF00200549088015E700000CED00E040
:101010000000FA0500E400E00000014006000020A6
:1010200000000020504F525428256429202D2044D0
:101030006574656374696F6E207374617475732071
:10104000756E6B6E6F776E0A000000001000002056
:1010500074120008504F525428256429202D20482E
:101060006967682063617061636974616E6365209C
:1010700061742074686520706F727420283E382E69
:1010800035CEBC462874797029290A00504F525435
:1010900028256429202D204C6F7720726573697391
:1010A00074616E63652061742074686520706F726E
:1010B0007420285228444554293C31356BCEA92947
:1010C0000A000000504F525428256429202D204446
:1010D0006574656374696F6E207061737320283165
:1010E000356BCEA93E5228444554293E33336BCE4E
:1010F000A9290A00504F525428256429202D204840
:1011000069676820726573697374616E63652061D5
:10111000742074686520706F7274202852284445CA
:1011200054293E33336BCEA9290A0000504F525444
:1011300028256429202D204F70656E20706F7274F1
:10114000202849284F5554293C3130CEBC41290A2A
:1011500000000000C0120008504F52542825642996
:10116000202D20436C61737320756E6B6E6F776EEC
:101170000A000000504F525428256429202D204396
:101180006C61737320300A00504F52542825642933
:10119000202D2043757272656E74206C696D6974C0
:1011A0000A000000504F525428256429202D204366
:1011B0006C6173732025640A00000000504F525484
:1011C00028256429202D20506F77657220697320AF
:1011D000656E61626C65640A00000000504F5254F5
:1011E00028256429202D20506F776572206973208F
:1011F00064697361626C65640A000000504F525468
:1012000028256429202D2056284F5554292D56284D
:101210004545293E5047285448290A00504F52540A
:1012200028256429202D2056284F5554292D56282D
:10123000454529E289A4504728544829206F722047
:1012400061206661756C7420636F6E646974696F88
:101250006E206F63637572730A0000000000000067
:101260000000000001020304060708090000000056
:1012700001020304504F525428256429202D205088
:101280006F73697469766520444320737570706C60
:101290007920636F6E6E6563746564206174207479
:1012A000686520706F72742028562841474E442983
:1012B0002D56284F5554293C3156290A000000006C
:1012C000504F525428256429202D204C6F772069D7
:1012D0006D706564616E636520746F2056284545A6
:1012E000292061742074686520706F7274202856FC
:1012F000284F5554292D56284545293C3256290A50
:10130000000000002413000800000020100000006E
:1013100028010008341300081000002060070000B6
:101320004401000800000000000000000000000070
:041330000024F400A1
:04000005080000ED02
:00000001FF
